{
  "_format": "hh-sol-artifact-1",
  "contractName": "MonadTypeRewards",
  "sourceName": "contracts/MonadTypeRewards.sol",
  "abi": [
    {
      "inputs": [
        {
          "internalType": "address",
          "name": "_rewardToken",
          "type": "address"
        }
      ],
      "stateMutability": "nonpayable",
      "type": "constructor"
    },
    {
      "inputs": [
        {
          "internalType": "address",
          "name": "owner",
          "type": "address"
        }
      ],
      "name": "OwnableInvalidOwner",
      "type": "error"
    },
    {
      "inputs": [
        {
          "internalType": "address",
          "name": "account",
          "type": "address"
        }
      ],
      "name": "OwnableUnauthorizedAccount",
      "type": "error"
    },
    {
      "inputs": [],
      "name": "ReentrancyGuardReentrantCall",
      "type": "error"
    },
    {
      "anonymous": false,
      "inputs": [
        {
          "indexed": true,
          "internalType": "uint256",
          "name": "level",
          "type": "uint256"
        },
        {
          "indexed": false,
          "internalType": "uint256",
          "name": "amount",
          "type": "uint256"
        }
      ],
      "name": "LevelRewardSet",
      "type": "event"
    },
    {
      "anonymous": false,
      "inputs": [
        {
          "indexed": true,
          "internalType": "address",
          "name": "player",
          "type": "address"
        },
        {
          "indexed": true,
          "internalType": "uint256",
          "name": "level",
          "type": "uint256"
        }
      ],
      "name": "LevelUpdated",
      "type": "event"
    },
    {
      "anonymous": false,
      "inputs": [
        {
          "indexed": true,
          "internalType": "address",
          "name": "previousOwner",
          "type": "address"
        },
        {
          "indexed": true,
          "internalType": "address",
          "name": "newOwner",
          "type": "address"
        }
      ],
      "name": "OwnershipTransferred",
      "type": "event"
    },
    {
      "anonymous": false,
      "inputs": [
        {
          "indexed": true,
          "internalType": "address",
          "name": "player",
          "type": "address"
        },
        {
          "indexed": true,
          "internalType": "uint256",
          "name": "level",
          "type": "uint256"
        },
        {
          "indexed": false,
          "internalType": "uint256",
          "name": "amount",
          "type": "uint256"
        }
      ],
      "name": "RewardPaid",
      "type": "event"
    },
    {
      "inputs": [
        {
          "internalType": "address",
          "name": "player",
          "type": "address"
        },
        {
          "internalType": "uint256",
          "name": "maxLevel",
          "type": "uint256"
        }
      ],
      "name": "getClaimedLevels",
      "outputs": [
        {
          "internalType": "uint256[]",
          "name": "claimedLevels",
          "type": "uint256[]"
        }
      ],
      "stateMutability": "view",
      "type": "function"
    },
    {
      "inputs": [
        {
          "internalType": "address",
          "name": "player",
          "type": "address"
        }
      ],
      "name": "getHighestLevel",
      "outputs": [
        {
          "internalType": "uint256",
          "name": "",
          "type": "uint256"
        }
      ],
      "stateMutability": "view",
      "type": "function"
    },
    {
      "inputs": [
        {
          "internalType": "uint256",
          "name": "level",
          "type": "uint256"
        }
      ],
      "name": "getLevelReward",
      "outputs": [
        {
          "internalType": "uint256",
          "name": "",
          "type": "uint256"
        }
      ],
      "stateMutability": "view",
      "type": "function"
    },
    {
      "inputs": [
        {
          "internalType": "address",
          "name": "player",
          "type": "address"
        },
        {
          "internalType": "uint256",
          "name": "level",
          "type": "uint256"
        }
      ],
      "name": "hasClaimedLevel",
      "outputs": [
        {
          "internalType": "bool",
          "name": "",
          "type": "bool"
        }
      ],
      "stateMutability": "view",
      "type": "function"
    },
    {
      "inputs": [
        {
          "internalType": "address",
          "name": "",
          "type": "address"
        }
      ],
      "name": "highestLevelReached",
      "outputs": [
        {
          "internalType": "uint256",
          "name": "",
          "type": "uint256"
        }
      ],
      "stateMutability": "view",
      "type": "function"
    },
    {
      "inputs": [
        {
          "internalType": "address",
          "name": "",
          "type": "address"
        },
        {
          "internalType": "uint256",
          "name": "",
          "type": "uint256"
        }
      ],
      "name": "levelClaimed",
      "outputs": [
        {
          "internalType": "bool",
          "name": "",
          "type": "bool"
        }
      ],
      "stateMutability": "view",
      "type": "function"
    },
    {
      "inputs": [
        {
          "internalType": "uint256",
          "name": "",
          "type": "uint256"
        }
      ],
      "name": "levelRewards",
      "outputs": [
        {
          "internalType": "uint256",
          "name": "",
          "type": "uint256"
        }
      ],
      "stateMutability": "view",
      "type": "function"
    },
    {
      "inputs": [],
      "name": "owner",
      "outputs": [
        {
          "internalType": "address",
          "name": "",
          "type": "address"
        }
      ],
      "stateMutability": "view",
      "type": "function"
    },
    {
      "inputs": [],
      "name": "renounceOwnership",
      "outputs": [],
      "stateMutability": "nonpayable",
      "type": "function"
    },
    {
      "inputs": [
        {
          "internalType": "address",
          "name": "player",
          "type": "address"
        },
        {
          "internalType": "uint256",
          "name": "level",
          "type": "uint256"
        }
      ],
      "name": "rewardPlayer",
      "outputs": [],
      "stateMutability": "nonpayable",
      "type": "function"
    },
    {
      "inputs": [],
      "name": "rewardToken",
      "outputs": [
        {
          "internalType": "contract IERC20",
          "name": "",
          "type": "address"
        }
      ],
      "stateMutability": "view",
      "type": "function"
    },
    {
      "inputs": [
        {
          "internalType": "uint256",
          "name": "level",
          "type": "uint256"
        },
        {
          "internalType": "uint256",
          "name": "amount",
          "type": "uint256"
        }
      ],
      "name": "setLevelReward",
      "outputs": [],
      "stateMutability": "nonpayable",
      "type": "function"
    },
    {
      "inputs": [
        {
          "internalType": "address",
          "name": "newOwner",
          "type": "address"
        }
      ],
      "name": "transferOwnership",
      "outputs": [],
      "stateMutability": "nonpayable",
      "type": "function"
    }
  ],
  "bytecode": "0x608060405234801561001057600080fd5b506040516114ca3803806114ca8339818101604052810190610032919061022a565b33600073ffffffffffffffffffffffffffffffffffffffff168173ffffffffffffffffffffffffffffffffffffffff16036100a55760006040517f1e4fbdf700000000000000000000000000000000000000000000000000000000815260040161009c9190610266565b60405180910390fd5b6100b48161010360201b60201c565b506001808190555080600260006101000a81548173ffffffffffffffffffffffffffffffffffffffff021916908373ffffffffffffffffffffffffffffffffffffffff16021790555050610281565b60008060009054906101000a900473ffffffffffffffffffffffffffffffffffffffff169050816000806101000a81548173ffffffffffffffffffffffffffffffffffffffff021916908373ffffffffffffffffffffffffffffffffffffffff1602179055508173ffffffffffffffffffffffffffffffffffffffff168173ffffffffffffffffffffffffffffffffffffffff167f8be0079c531659141344cd1fd0a4f28419497f9722a3daafe3b4186f6b6457e060405160405180910390a35050565b600080fd5b600073ffffffffffffffffffffffffffffffffffffffff82169050919050565b60006101f7826101cc565b9050919050565b610207816101ec565b811461021257600080fd5b50565b600081519050610224816101fe565b92915050565b6000602082840312156102405761023f6101c7565b5b600061024e84828501610215565b91505092915050565b610260816101ec565b82525050565b600060208201905061027b6000830184610257565b92915050565b61123a806102906000396000f3fe608060405234801561001057600080fd5b50600436106100cf5760003560e01c80638da5cb5b1161008c578063e45a57d011610066578063e45a57d014610238578063f2fde38b14610268578063f6d95eea14610284578063f7c618c1146102a0576100cf565b80638da5cb5b146101ba578063da8c3d97146101d8578063db06a3ae14610208576100cf565b806335f6ebc1146100d4578063399b486c146100f05780633db489f4146101205780636998b62314610150578063715018a614610180578063860f22e61461018a575b600080fd5b6100ee60048036038101906100e99190610c9a565b6102be565b005b61010a60048036038101906101059190610cda565b61064e565b6040516101179190610d16565b60405180910390f35b61013a60048036038101906101359190610c9a565b610666565b6040516101479190610def565b60405180910390f35b61016a60048036038101906101659190610c9a565b610805565b6040516101779190610e2c565b60405180910390f35b61018861086d565b005b6101a4600480360381019061019f9190610cda565b610881565b6040516101b19190610d16565b60405180910390f35b6101c26108ca565b6040516101cf9190610e56565b60405180910390f35b6101f260048036038101906101ed9190610c9a565b6108f3565b6040516101ff9190610e2c565b60405180910390f35b610222600480360381019061021d9190610e71565b610922565b60405161022f9190610d16565b60405180910390f35b610252600480360381019061024d9190610e71565b61093f565b60405161025f9190610d16565b60405180910390f35b610282600480360381019061027d9190610cda565b610957565b005b61029e60048036038101906102999190610e9e565b6109dd565b005b6102a8610a39565b6040516102b59190610f3d565b60405180910390f35b6102c6610a5f565b6102ce610ae6565b600460008373ffffffffffffffffffffffffffffffffffffffff1673ffffffffffffffffffffffffffffffffffffffff168152602001908152602001600020600082815260200190815260200160002060009054906101000a900460ff161561036c576040517f08c379a000000000000000000000000000000000000000000000000000000000815260040161036390610fb5565b60405180910390fd5b60006003600083815260200190815260200160002054116103c2576040517f08c379a00000000000000000000000000000000000000000000000000000000081526004016103b990611021565b60405180910390fd5b6001600460008473ffffffffffffffffffffffffffffffffffffffff1673ffffffffffffffffffffffffffffffffffffffff168152602001908152602001600020600083815260200190815260200160002060006101000a81548160ff021916908315150217905550600560008373ffffffffffffffffffffffffffffffffffffffff1673ffffffffffffffffffffffffffffffffffffffff168152602001908152602001600020548111156104fb5780600560008473ffffffffffffffffffffffffffffffffffffffff1673ffffffffffffffffffffffffffffffffffffffff16815260200190815260200160002081905550808273ffffffffffffffffffffffffffffffffffffffff167f4bd6aedf6fbd4e9cacaf319dc8d6906ff7f7fd2522898365f92afab9cb24544460405160405180910390a35b600060036000838152602001908152602001600020549050600260009054906101000a900473ffffffffffffffffffffffffffffffffffffffff1673ffffffffffffffffffffffffffffffffffffffff1663a9059cbb84836040518363ffffffff1660e01b8152600401610570929190611041565b6020604051808303816000875af115801561058f573d6000803e3d6000fd5b505050506040513d601f19601f820116820180604052508101906105b39190611096565b6105f2576040517f08c379a00000000000000000000000000000000000000000000000000000000081526004016105e99061110f565b60405180910390fd5b818373ffffffffffffffffffffffffffffffffffffffff167fd6f2c8500df5b44f11e9e48b91ff9f1b9d81bc496d55570c2b1b75bf65243f51836040516106399190610d16565b60405180910390a35061064a610b2c565b5050565b60056020528060005260406000206000915090505481565b6060600080600190505b8381116106fc57600460008673ffffffffffffffffffffffffffffffffffffffff1673ffffffffffffffffffffffffffffffffffffffff168152602001908152602001600020600082815260200190815260200160002060009054906101000a900460ff16156106e95781806106e59061115e565b9250505b80806106f49061115e565b915050610670565b508067ffffffffffffffff811115610717576107166111a6565b5b6040519080825280602002602001820160405280156107455781602001602082028036833780820191505090505b509150600080600190505b8481116107fc57600460008773ffffffffffffffffffffffffffffffffffffffff1673ffffffffffffffffffffffffffffffffffffffff168152602001908152602001600020600082815260200190815260200160002060009054906101000a900460ff16156107e957808483815181106107ce576107cd6111d5565b5b60200260200101818152505081806107e59061115e565b9250505b80806107f49061115e565b915050610750565b50505092915050565b6000600460008473ffffffffffffffffffffffffffffffffffffffff1673ffffffffffffffffffffffffffffffffffffffff168152602001908152602001600020600083815260200190815260200160002060009054906101000a900460ff16905092915050565b610875610a5f565b61087f6000610b35565b565b6000600560008373ffffffffffffffffffffffffffffffffffffffff1673ffffffffffffffffffffffffffffffffffffffff168152602001908152602001600020549050919050565b60008060009054906101000a900473ffffffffffffffffffffffffffffffffffffffff16905090565b60046020528160005260406000206020528060005260406000206000915091509054906101000a900460ff1681565b600060036000838152602001908152602001600020549050919050565b60036020528060005260406000206000915090505481565b61095f610a5f565b600073ffffffffffffffffffffffffffffffffffffffff168173ffffffffffffffffffffffffffffffffffffffff16036109d15760006040517f1e4fbdf70000000000000000000000000000000000000000000000000000000081526004016109c89190610e56565b60405180910390fd5b6109da81610b35565b50565b6109e5610a5f565b806003600084815260200190815260200160002081905550817fdf19ce6f53e9d05dfb465cd5a277868b4c9c2248b31e6b676abedcb72dad6b6682604051610a2d9190610d16565b60405180910390a25050565b600260009054906101000a900473ffffffffffffffffffffffffffffffffffffffff1681565b610a67610bf9565b73ffffffffffffffffffffffffffffffffffffffff16610a856108ca565b73ffffffffffffffffffffffffffffffffffffffff1614610ae457610aa8610bf9565b6040517f118cdaa7000000000000000000000000000000000000000000000000000000008152600401610adb9190610e56565b60405180910390fd5b565b600260015403610b22576040517f3ee5aeb500000000000000000000000000000000000000000000000000000000815260040160405180910390fd5b6002600181905550565b60018081905550565b60008060009054906101000a900473ffffffffffffffffffffffffffffffffffffffff169050816000806101000a81548173ffffffffffffffffffffffffffffffffffffffff021916908373ffffffffffffffffffffffffffffffffffffffff1602179055508173ffffffffffffffffffffffffffffffffffffffff168173ffffffffffffffffffffffffffffffffffffffff167f8be0079c531659141344cd1fd0a4f28419497f9722a3daafe3b4186f6b6457e060405160405180910390a35050565b600033905090565b600080fd5b600073ffffffffffffffffffffffffffffffffffffffff82169050919050565b6000610c3182610c06565b9050919050565b610c4181610c26565b8114610c4c57600080fd5b50565b600081359050610c5e81610c38565b92915050565b6000819050919050565b610c7781610c64565b8114610c8257600080fd5b50565b600081359050610c9481610c6e565b92915050565b60008060408385031215610cb157610cb0610c01565b5b6000610cbf85828601610c4f565b9250506020610cd085828601610c85565b9150509250929050565b600060208284031215610cf057610cef610c01565b5b6000610cfe84828501610c4f565b91505092915050565b610d1081610c64565b82525050565b6000602082019050610d2b6000830184610d07565b92915050565b600081519050919050565b600082825260208201905092915050565b6000819050602082019050919050565b610d6681610c64565b82525050565b6000610d788383610d5d565b60208301905092915050565b6000602082019050919050565b6000610d9c82610d31565b610da68185610d3c565b9350610db183610d4d565b8060005b83811015610de2578151610dc98882610d6c565b9750610dd483610d84565b925050600181019050610db5565b5085935050505092915050565b60006020820190508181036000830152610e098184610d91565b905092915050565b60008115159050919050565b610e2681610e11565b82525050565b6000602082019050610e416000830184610e1d565b92915050565b610e5081610c26565b82525050565b6000602082019050610e6b6000830184610e47565b92915050565b600060208284031215610e8757610e86610c01565b5b6000610e9584828501610c85565b91505092915050565b60008060408385031215610eb557610eb4610c01565b5b6000610ec385828601610c85565b9250506020610ed485828601610c85565b9150509250929050565b6000819050919050565b6000610f03610efe610ef984610c06565b610ede565b610c06565b9050919050565b6000610f1582610ee8565b9050919050565b6000610f2782610f0a565b9050919050565b610f3781610f1c565b82525050565b6000602082019050610f526000830184610f2e565b92915050565b600082825260208201905092915050565b7f4c6576656c20616c726561647920636c61696d65640000000000000000000000600082015250565b6000610f9f601583610f58565b9150610faa82610f69565b602082019050919050565b60006020820190508181036000830152610fce81610f92565b9050919050565b7f4e6f207265776172642073657420666f722074686973206c6576656c00000000600082015250565b600061100b601c83610f58565b915061101682610fd5565b602082019050919050565b6000602082019050818103600083015261103a81610ffe565b9050919050565b60006040820190506110566000830185610e47565b6110636020830184610d07565b9392505050565b61107381610e11565b811461107e57600080fd5b50565b6000815190506110908161106a565b92915050565b6000602082840312156110ac576110ab610c01565b5b60006110ba84828501611081565b91505092915050565b7f546f6b656e207472616e73666572206661696c65640000000000000000000000600082015250565b60006110f9601583610f58565b9150611104826110c3565b602082019050919050565b60006020820190508181036000830152611128816110ec565b9050919050565b7f4e487b7100000000000000000000000000000000000000000000000000000000600052601160045260246000fd5b600061116982610c64565b91507fffffffffffffffffffffffffffffffffffffffffffffffffffffffffffffffff820361119b5761119a61112f565b5b600182019050919050565b7f4e487b7100000000000000000000000000000000000000000000000000000000600052604160045260246000fd5b7f4e487b7100000000000000000000000000000000000000000000000000000000600052603260045260246000fdfea2646970667358221220b3fd5aed608f5e5b30eb2bdc07c3056e65dd7f214679aca5d5771a4c0ebfb48164736f6c634300081c0033",
  "linkReferences": {},
  "deployedLinkReferences": {}
}